{
  "_format": "hh3-artifact-1",
  "contractName": "CoinFlip",
  "sourceName": "contracts/CoinFlip.sol",
  "abi": [
    {
      "inputs": [
        {
          "internalType": "address",
          "name": "_owner",
          "type": "address"
        },
        {
          "internalType": "address",
          "name": "_vrf",
          "type": "address"
        }
      ],
      "stateMutability": "nonpayable",
      "type": "constructor"
    },
    {
      "anonymous": false,
      "inputs": [
        {
          "indexed": true,
          "internalType": "address",
          "name": "player",
          "type": "address"
        },
        {
          "indexed": false,
          "internalType": "uint256",
          "name": "betAmount",
          "type": "uint256"
        },
        {
          "indexed": false,
          "internalType": "enum CoinFlip.CoinSide",
          "name": "choice",
          "type": "uint8"
        },
        {
          "indexed": true,
          "internalType": "uint256",
          "name": "requestId",
          "type": "uint256"
        }
      ],
      "name": "FlipCommitted",
      "type": "event"
    },
    {
      "anonymous": false,
      "inputs": [
        {
          "indexed": true,
          "internalType": "address",
          "name": "player",
          "type": "address"
        },
        {
          "indexed": false,
          "internalType": "uint256",
          "name": "betAmount",
          "type": "uint256"
        },
        {
          "indexed": false,
          "internalType": "enum CoinFlip.CoinSide",
          "name": "choice",
          "type": "uint8"
        },
        {
          "indexed": false,
          "internalType": "enum CoinFlip.CoinSide",
          "name": "result",
          "type": "uint8"
        },
        {
          "indexed": false,
          "internalType": "bool",
          "name": "didWin",
          "type": "bool"
        },
        {
          "indexed": false,
          "internalType": "uint256",
          "name": "payout",
          "type": "uint256"
        },
        {
          "indexed": true,
          "internalType": "uint256",
          "name": "requestId",
          "type": "uint256"
        }
      ],
      "name": "FlipRevealed",
      "type": "event"
    },
    {
      "anonymous": false,
      "inputs": [
        {
          "indexed": true,
          "internalType": "address",
          "name": "depositor",
          "type": "address"
        },
        {
          "indexed": false,
          "internalType": "uint256",
          "name": "amount",
          "type": "uint256"
        }
      ],
      "name": "FundsDeposited",
      "type": "event"
    },
    {
      "anonymous": false,
      "inputs": [
        {
          "indexed": true,
          "internalType": "address",
          "name": "recipient",
          "type": "address"
        },
        {
          "indexed": false,
          "internalType": "uint256",
          "name": "amount",
          "type": "uint256"
        }
      ],
      "name": "FundsWithdrawn",
      "type": "event"
    },
    {
      "anonymous": false,
      "inputs": [
        {
          "indexed": false,
          "internalType": "uint256",
          "name": "oldPercent",
          "type": "uint256"
        },
        {
          "indexed": false,
          "internalType": "uint256",
          "name": "newPercent",
          "type": "uint256"
        }
      ],
      "name": "MaxRewardPercentUpdated",
      "type": "event"
    },
    {
      "anonymous": false,
      "inputs": [
        {
          "indexed": false,
          "internalType": "uint256",
          "name": "oldMinBet",
          "type": "uint256"
        },
        {
          "indexed": false,
          "internalType": "uint256",
          "name": "newMinBet",
          "type": "uint256"
        }
      ],
      "name": "MinBetUpdated",
      "type": "event"
    },
    {
      "anonymous": false,
      "inputs": [
        {
          "indexed": true,
          "internalType": "address",
          "name": "oldOwner",
          "type": "address"
        },
        {
          "indexed": true,
          "internalType": "address",
          "name": "newOwner",
          "type": "address"
        }
      ],
      "name": "OwnershipTransferred",
      "type": "event"
    },
    {
      "anonymous": false,
      "inputs": [
        {
          "indexed": false,
          "internalType": "address",
          "name": "oldVRF",
          "type": "address"
        },
        {
          "indexed": false,
          "internalType": "address",
          "name": "newVRF",
          "type": "address"
        }
      ],
      "name": "VRFChanged",
      "type": "event"
    },
    {
      "inputs": [],
      "name": "BASE_PAYOUT",
      "outputs": [
        {
          "internalType": "uint256",
          "name": "",
          "type": "uint256"
        }
      ],
      "stateMutability": "view",
      "type": "function"
    },
    {
      "inputs": [],
      "name": "HOUSE_EDGE",
      "outputs": [
        {
          "internalType": "uint256",
          "name": "",
          "type": "uint256"
        }
      ],
      "stateMutability": "view",
      "type": "function"
    },
    {
      "inputs": [],
      "name": "WIN_CHANCE",
      "outputs": [
        {
          "internalType": "uint256",
          "name": "",
          "type": "uint256"
        }
      ],
      "stateMutability": "view",
      "type": "function"
    },
    {
      "inputs": [
        {
          "internalType": "uint256",
          "name": "_betAmount",
          "type": "uint256"
        }
      ],
      "name": "calculatePayout",
      "outputs": [
        {
          "internalType": "uint256",
          "name": "potentialPayout",
          "type": "uint256"
        }
      ],
      "stateMutability": "pure",
      "type": "function"
    },
    {
      "inputs": [
        {
          "internalType": "uint256",
          "name": "_betAmount",
          "type": "uint256"
        }
      ],
      "name": "canPlaceBet",
      "outputs": [
        {
          "internalType": "bool",
          "name": "canBet",
          "type": "bool"
        },
        {
          "internalType": "string",
          "name": "reason",
          "type": "string"
        }
      ],
      "stateMutability": "view",
      "type": "function"
    },
    {
      "inputs": [
        {
          "internalType": "enum CoinFlip.CoinSide",
          "name": "_side",
          "type": "uint8"
        }
      ],
      "name": "coinSideToString",
      "outputs": [
        {
          "internalType": "string",
          "name": "",
          "type": "string"
        }
      ],
      "stateMutability": "pure",
      "type": "function"
    },
    {
      "inputs": [],
      "name": "contractBalance",
      "outputs": [
        {
          "internalType": "uint256",
          "name": "",
          "type": "uint256"
        }
      ],
      "stateMutability": "view",
      "type": "function"
    },
    {
      "inputs": [],
      "name": "depositFunds",
      "outputs": [],
      "stateMutability": "payable",
      "type": "function"
    },
    {
      "inputs": [],
      "name": "emergencyWithdraw",
      "outputs": [],
      "stateMutability": "nonpayable",
      "type": "function"
    },
    {
      "inputs": [
        {
          "internalType": "enum CoinFlip.CoinSide",
          "name": "_choice",
          "type": "uint8"
        }
      ],
      "name": "flipCoin",
      "outputs": [],
      "stateMutability": "payable",
      "type": "function"
    },
    {
      "inputs": [
        {
          "internalType": "uint256",
          "name": "",
          "type": "uint256"
        }
      ],
      "name": "flipRequests",
      "outputs": [
        {
          "internalType": "address",
          "name": "player",
          "type": "address"
        },
        {
          "internalType": "uint256",
          "name": "betAmount",
          "type": "uint256"
        },
        {
          "internalType": "enum CoinFlip.CoinSide",
          "name": "choice",
          "type": "uint8"
        },
        {
          "internalType": "bool",
          "name": "processed",
          "type": "bool"
        }
      ],
      "stateMutability": "view",
      "type": "function"
    },
    {
      "inputs": [],
      "name": "getActualBalance",
      "outputs": [
        {
          "internalType": "uint256",
          "name": "",
          "type": "uint256"
        }
      ],
      "stateMutability": "view",
      "type": "function"
    },
    {
      "inputs": [],
      "name": "getBetLimits",
      "outputs": [
        {
          "internalType": "uint256",
          "name": "minBetAmount",
          "type": "uint256"
        },
        {
          "internalType": "uint256",
          "name": "maxBetAmount",
          "type": "uint256"
        }
      ],
      "stateMutability": "view",
      "type": "function"
    },
    {
      "inputs": [],
      "name": "getGameStats",
      "outputs": [
        {
          "internalType": "uint256",
          "name": "houseEdge",
          "type": "uint256"
        },
        {
          "internalType": "uint256",
          "name": "winChance",
          "type": "uint256"
        },
        {
          "internalType": "uint256",
          "name": "payoutMultiplier",
          "type": "uint256"
        },
        {
          "internalType": "uint256",
          "name": "currentBalance",
          "type": "uint256"
        },
        {
          "internalType": "uint256",
          "name": "minBetAmount",
          "type": "uint256"
        },
        {
          "internalType": "uint256",
          "name": "maxBetAmount",
          "type": "uint256"
        }
      ],
      "stateMutability": "view",
      "type": "function"
    },
    {
      "inputs": [],
      "name": "maxRewardPercent",
      "outputs": [
        {
          "internalType": "uint256",
          "name": "",
          "type": "uint256"
        }
      ],
      "stateMutability": "view",
      "type": "function"
    },
    {
      "inputs": [],
      "name": "minBet",
      "outputs": [
        {
          "internalType": "uint256",
          "name": "",
          "type": "uint256"
        }
      ],
      "stateMutability": "view",
      "type": "function"
    },
    {
      "inputs": [],
      "name": "owner",
      "outputs": [
        {
          "internalType": "address",
          "name": "",
          "type": "address"
        }
      ],
      "stateMutability": "view",
      "type": "function"
    },
    {
      "inputs": [
        {
          "internalType": "uint256",
          "name": "requestId",
          "type": "uint256"
        },
        {
          "internalType": "uint256",
          "name": "randomNumber",
          "type": "uint256"
        }
      ],
      "name": "randomNumberCallback",
      "outputs": [],
      "stateMutability": "nonpayable",
      "type": "function"
    },
    {
      "inputs": [
        {
          "internalType": "uint256",
          "name": "_percentIn8decimals",
          "type": "uint256"
        }
      ],
      "name": "setMaxRewardPercent",
      "outputs": [],
      "stateMutability": "nonpayable",
      "type": "function"
    },
    {
      "inputs": [
        {
          "internalType": "uint256",
          "name": "_minBet",
          "type": "uint256"
        }
      ],
      "name": "setMinBet",
      "outputs": [],
      "stateMutability": "nonpayable",
      "type": "function"
    },
    {
      "inputs": [
        {
          "internalType": "address",
          "name": "_newVRF",
          "type": "address"
        }
      ],
      "name": "setVRFAddress",
      "outputs": [],
      "stateMutability": "nonpayable",
      "type": "function"
    },
    {
      "inputs": [
        {
          "internalType": "address",
          "name": "_newOwner",
          "type": "address"
        }
      ],
      "name": "transferOwnership",
      "outputs": [],
      "stateMutability": "nonpayable",
      "type": "function"
    },
    {
      "inputs": [],
      "name": "vrfAddress",
      "outputs": [
        {
          "internalType": "address",
          "name": "",
          "type": "address"
        }
      ],
      "stateMutability": "view",
      "type": "function"
    },
    {
      "inputs": [],
      "name": "vrfSystem",
      "outputs": [
        {
          "internalType": "contract IVRFSystem",
          "name": "",
          "type": "address"
        }
      ],
      "stateMutability": "view",
      "type": "function"
    },
    {
      "inputs": [
        {
          "internalType": "uint256",
          "name": "_amount",
          "type": "uint256"
        }
      ],
      "name": "withdrawFunds",
      "outputs": [],
      "stateMutability": "nonpayable",
      "type": "function"
    },
    {
      "stateMutability": "payable",
      "type": "receive"
    }
  ],
  "bytecode": "0x608060405266038d7ea4c6800060035562989680600455348015610021575f5ffd5b50604051612a7e380380612a7e8339818101604052810190610043919061024a565b5f73ffffffffffffffffffffffffffffffffffffffff168273ffffffffffffffffffffffffffffffffffffffff16036100b1576040517f08c379a00000000000000000000000000000000000000000000000000000000081526004016100a8906102e2565b60405180910390fd5b5f73ffffffffffffffffffffffffffffffffffffffff168173ffffffffffffffffffffffffffffffffffffffff160361011f576040517f08c379a00000000000000000000000000000000000000000000000000000000081526004016101169061034a565b60405180910390fd5b8160015f6101000a81548173ffffffffffffffffffffffffffffffffffffffff021916908373ffffffffffffffffffffffffffffffffffffffff1602179055508060025f6101000a81548173ffffffffffffffffffffffffffffffffffffffff021916908373ffffffffffffffffffffffffffffffffffffffff160217905550805f5f6101000a81548173ffffffffffffffffffffffffffffffffffffffff021916908373ffffffffffffffffffffffffffffffffffffffff1602179055505f6005819055505050610368565b5f5ffd5b5f73ffffffffffffffffffffffffffffffffffffffff82169050919050565b5f610219826101f0565b9050919050565b6102298161020f565b8114610233575f5ffd5b50565b5f8151905061024481610220565b92915050565b5f5f604083850312156102605761025f6101ec565b5b5f61026d85828601610236565b925050602061027e85828601610236565b9150509250929050565b5f82825260208201905092915050565b7f496e76616c6964206f776e6572206164647265737300000000000000000000005f82015250565b5f6102cc601583610288565b91506102d782610298565b602082019050919050565b5f6020820190508181035f8301526102f9816102c0565b9050919050565b7f496e76616c6964205652462070726f76696465722061646472657373000000005f82015250565b5f610334601c83610288565b915061033f82610300565b602082019050919050565b5f6020820190508181035f83015261036181610328565b9050919050565b612709806103755f395ff3fe608060405260043610610169575f3560e01c80638da5cb5b116100d05780639cee949211610089578063e2c41dbc11610063578063e2c41dbc146105ec578063f2fde38b146105f6578063f436aa661461061e578063fa6a26921461064857610265565b80639cee949214610586578063d593c1f5146105ae578063db2e21bc146105d657610265565b80638da5cb5b1461047a5780638daaaa2f146104a45780638f561acc146104ce5780639619367d146104f65780639727e00714610520578063998a73dc1461055c57610265565b80633395b75a116101225780633395b75a1461037c5780633bb91c77146103a657806344dd3d0d146103e25780636afa82ea1461040c57806388ea41b9146104285780638b7afe2e1461045057610265565b8063155dd5ee146102695780631aff30dd146102915780631c8c3a07146102c05780631e15e994146102ea5780632418c2d4146103275780632cf895501461035257610265565b366102655760015f9054906101000a900473ffffffffffffffffffffffffffffffffffffffff1673ffffffffffffffffffffffffffffffffffffffff163373ffffffffffffffffffffffffffffffffffffffff16146101fd576040517f08c379a00000000000000000000000000000000000000000000000000000000081526004016101f490611b4d565b60405180910390fd5b3460055f82825461020e9190611ba1565b925050819055503373ffffffffffffffffffffffffffffffffffffffff167f543ba50a5eec5e6178218e364b1d0f396157b3c8fa278522c2cb7fd99407d4743460405161025b9190611be3565b60405180910390a2005b5f5ffd5b348015610274575f5ffd5b5061028f600480360381019061028a9190611c2a565b610687565b005b34801561029c575f5ffd5b506102a561086d565b6040516102b796959493929190611c55565b60405180910390f35b3480156102cb575f5ffd5b506102d46108be565b6040516102e19190611cf3565b60405180910390f35b3480156102f5575f5ffd5b50610310600480360381019061030b9190611c2a565b6108e3565b60405161031e929190611d86565b60405180910390f35b348015610332575f5ffd5b5061033b6109f5565b604051610349929190611db4565b60405180910390f35b34801561035d575f5ffd5b50610366610a6a565b6040516103739190611be3565b60405180910390f35b348015610387575f5ffd5b50610390610a8c565b60405161039d9190611be3565b60405180910390f35b3480156103b1575f5ffd5b506103cc60048036038101906103c79190611c2a565b610a92565b6040516103d99190611be3565b60405180910390f35b3480156103ed575f5ffd5b506103f6610ad3565b6040516104039190611be3565b60405180910390f35b61042660048036038101906104219190611dfe565b610ada565b005b348015610433575f5ffd5b5061044e60048036038101906104499190611c2a565b610dc7565b005b34801561045b575f5ffd5b50610464610e9b565b6040516104719190611be3565b60405180910390f35b348015610485575f5ffd5b5061048e610ea1565b60405161049b9190611cf3565b60405180910390f35b3480156104af575f5ffd5b506104b8610ec6565b6040516104c59190611be3565b60405180910390f35b3480156104d9575f5ffd5b506104f460048036038101906104ef9190611e29565b610ecd565b005b348015610501575f5ffd5b5061050a611271565b6040516105179190611be3565b60405180910390f35b34801561052b575f5ffd5b5061054660048036038101906105419190611dfe565b611277565b6040516105539190611e67565b60405180910390f35b348015610567575f5ffd5b5061057061131f565b60405161057d9190611be3565b60405180910390f35b348015610591575f5ffd5b506105ac60048036038101906105a79190611c2a565b611327565b005b3480156105b9575f5ffd5b506105d460048036038101906105cf9190611eb1565b61144c565b005b3480156105e1575f5ffd5b506105ea611625565b005b6105f46117b9565b005b348015610601575f5ffd5b5061061c60048036038101906106179190611eb1565b6118b0565b005b348015610629575f5ffd5b50610632611a6b565b60405161063f9190611f37565b60405180910390f35b348015610653575f5ffd5b5061066e60048036038101906106699190611c2a565b611a8f565b60405161067e9493929190611fc3565b60405180910390f35b60015f9054906101000a900473ffffffffffffffffffffffffffffffffffffffff1673ffffffffffffffffffffffffffffffffffffffff163373ffffffffffffffffffffffffffffffffffffffff1614610716576040517f08c379a000000000000000000000000000000000000000000000000000000000815260040161070d90612050565b60405180910390fd5b60055481111561075b576040517f08c379a0000000000000000000000000000000000000000000000000000000008152600401610752906120b8565b60405180910390fd5b8060055f82825461076c91906120d6565b925050819055505f3373ffffffffffffffffffffffffffffffffffffffff168260405161079890612136565b5f6040518083038185875af1925050503d805f81146107d2576040519150601f19603f3d011682016040523d82523d5f602084013e6107d7565b606091505b505090508061081b576040517f08c379a000000000000000000000000000000000000000000000000000000000815260040161081290612194565b60405180910390fd5b3373ffffffffffffffffffffffffffffffffffffffff167feaff4b37086828766ad3268786972c0cd24259d4c87a80f9d3963a3c3d999b0d836040516108619190611be3565b60405180910390a25050565b5f5f5f5f5f5f620f424095506302faf0809450620f4240600261089091906121b2565b630bebc20061089f91906120d6565b935060055492506108ae6109f5565b8092508193505050909192939495565b60025f9054906101000a900473ffffffffffffffffffffffffffffffffffffffff1681565b5f6060600354831015610930575f6040518060400160405280601881526020017f42657420616d6f756e742062656c6f77206d696e696d756d0000000000000000815250915091506109f0565b5f6305f5e100620f4240600261094691906121b2565b630bebc20061095591906120d6565b8561096091906121b2565b61096a9190612220565b90505f6305f5e10060045460055461098291906121b2565b61098c9190612220565b9050808211156109d8575f6040518060400160405280601c81526020017f4265742065786365656473206d617820726577617264206c696d6974000000008152509350935050506109f0565b600160405180602001604052805f8152509350935050505b915091565b5f5f60035491505f6305f5e100600454600554610a1291906121b2565b610a1c9190612220565b9050620f42406002610a2e91906121b2565b630bebc200610a3d91906120d6565b6305f5e10082610a4d91906121b2565b610a579190612220565b915082821015610a65575f91505b509091565b620f42406002610a7a91906121b2565b630bebc200610a8991906120d6565b81565b60045481565b5f6305f5e100620f42406002610aa891906121b2565b630bebc200610ab791906120d6565b83610ac291906121b2565b610acc9190612220565b9050919050565b5f47905090565b600354341015610b1f576040517f08c379a0000000000000000000000000000000000000000000000000000000008152600401610b169061229a565b60405180910390fd5b5f6305f5e100620f42406002610b3591906121b2565b630bebc200610b4491906120d6565b34610b4f91906121b2565b610b599190612220565b90505f6305f5e100600454600554610b7191906121b2565b610b7b9190612220565b905080821115610bc0576040517f08c379a0000000000000000000000000000000000000000000000000000000008152600401610bb790612302565b60405180910390fd5b3460055f828254610bd19190611ba1565b925050819055505f5f5f9054906101000a900473ffffffffffffffffffffffffffffffffffffffff1673ffffffffffffffffffffffffffffffffffffffff1663e39144725f6040518263ffffffff1660e01b8152600401610c329190612359565b6020604051808303815f875af1158015610c4e573d5f5f3e3d5ffd5b505050506040513d601f19601f82011682018060405250810190610c729190612386565b905060405180608001604052803373ffffffffffffffffffffffffffffffffffffffff168152602001348152602001856001811115610cb457610cb3611f50565b5b81526020015f151581525060065f8381526020019081526020015f205f820151815f015f6101000a81548173ffffffffffffffffffffffffffffffffffffffff021916908373ffffffffffffffffffffffffffffffffffffffff160217905550602082015181600101556040820151816002015f6101000a81548160ff02191690836001811115610d4857610d47611f50565b5b021790555060608201518160020160016101000a81548160ff021916908315150217905550905050803373ffffffffffffffffffffffffffffffffffffffff167f468a6beb556f9277f02cf9bb5a1fe7cb6f8c4888beef61946a7a1fdda86bc7943487604051610db99291906123b1565b60405180910390a350505050565b60015f9054906101000a900473ffffffffffffffffffffffffffffffffffffffff1673ffffffffffffffffffffffffffffffffffffffff163373ffffffffffffffffffffffffffffffffffffffff1614610e56576040517f08c379a0000000000000000000000000000000000000000000000000000000008152600401610e4d90612050565b60405180910390fd5b7f3719cd5401c2d4ed5d6b10ce00a5f7334a6b3aab412ada7853cadec7e109c13660035482604051610e89929190611db4565b60405180910390a18060038190555050565b60055481565b60015f9054906101000a900473ffffffffffffffffffffffffffffffffffffffff1681565b620f424081565b60025f9054906101000a900473ffffffffffffffffffffffffffffffffffffffff1673ffffffffffffffffffffffffffffffffffffffff163373ffffffffffffffffffffffffffffffffffffffff1614610f5c576040517f08c379a0000000000000000000000000000000000000000000000000000000008152600401610f5390612422565b60405180910390fd5b5f60065f8481526020019081526020015f2090508060020160019054906101000a900460ff1615610fc2576040517f08c379a0000000000000000000000000000000000000000000000000000000008152600401610fb99061248a565b60405180910390fd5b60018160020160016101000a81548160ff0219169083151502179055505f60028484604051602001610ff59291906124c8565b604051602081830303815290604052805190602001205f1c61101791906124f3565b90505f81600181111561102d5761102c611f50565b5b90505f836002015f9054906101000a900460ff16600181111561105357611052611f50565b5b82600181111561106657611065611f50565b5b1490505f5f905081156111db576305f5e100620f4240600261108891906121b2565b630bebc20061109791906120d6565b86600101546110a691906121b2565b6110b09190612220565b90506005548111156110f7576040517f08c379a00000000000000000000000000000000000000000000000000000000081526004016110ee906120b8565b60405180910390fd5b8060055f82825461110891906120d6565b925050819055505f855f015f9054906101000a900473ffffffffffffffffffffffffffffffffffffffff1673ffffffffffffffffffffffffffffffffffffffff168260405161115690612136565b5f6040518083038185875af1925050503d805f8114611190576040519150601f19603f3d011682016040523d82523d5f602084013e611195565b606091505b50509050806111d9576040517f08c379a00000000000000000000000000000000000000000000000000000000081526004016111d090612194565b60405180910390fd5b505b86855f015f9054906101000a900473ffffffffffffffffffffffffffffffffffffffff1673ffffffffffffffffffffffffffffffffffffffff167f9cec091039c9383782e497fdad4fd8a4ff24935cf74c1456e95311304f7f95618760010154886002015f9054906101000a900460ff16878787604051611260959493929190612523565b60405180910390a350505050505050565b60035481565b60605f600181111561128c5761128b611f50565b5b82600181111561129f5761129e611f50565b5b036112e1576040518060400160405280600581526020017f4845414453000000000000000000000000000000000000000000000000000000815250905061131a565b6040518060400160405280600581526020017f5441494c5300000000000000000000000000000000000000000000000000000081525090505b919050565b6302faf08081565b60015f9054906101000a900473ffffffffffffffffffffffffffffffffffffffff1673ffffffffffffffffffffffffffffffffffffffff163373ffffffffffffffffffffffffffffffffffffffff16146113b6576040517f08c379a00000000000000000000000000000000000000000000000000000000081526004016113ad90612050565b60405180910390fd5b5f811180156113c957506302faf0808111155b611408576040517f08c379a00000000000000000000000000000000000000000000000000000000081526004016113ff906125be565b60405180910390fd5b7ebdb6a7fcf532c0096fa8b04559b051b1a9c8c3c227885d507f5ccd0835a4a66004548260405161143a929190611db4565b60405180910390a18060048190555050565b60015f9054906101000a900473ffffffffffffffffffffffffffffffffffffffff1673ffffffffffffffffffffffffffffffffffffffff163373ffffffffffffffffffffffffffffffffffffffff16146114db576040517f08c379a00000000000000000000000000000000000000000000000000000000081526004016114d290612050565b60405180910390fd5b5f73ffffffffffffffffffffffffffffffffffffffff168173ffffffffffffffffffffffffffffffffffffffff1603611549576040517f08c379a000000000000000000000000000000000000000000000000000000000815260040161154090612626565b60405180910390fd5b7fb0c8f6a7b2750ef4a33c7c5ada89377e96f31b576ae94d8ce9550b3afd017f2c60025f9054906101000a900473ffffffffffffffffffffffffffffffffffffffff168260405161159b929190612644565b60405180910390a18060025f6101000a81548173ffffffffffffffffffffffffffffffffffffffff021916908373ffffffffffffffffffffffffffffffffffffffff160217905550805f5f6101000a81548173ffffffffffffffffffffffffffffffffffffffff021916908373ffffffffffffffffffffffffffffffffffffffff16021790555050565b60015f9054906101000a900473ffffffffffffffffffffffffffffffffffffffff1673ffffffffffffffffffffffffffffffffffffffff163373ffffffffffffffffffffffffffffffffffffffff16146116b4576040517f08c379a00000000000000000000000000000000000000000000000000000000081526004016116ab90612050565b60405180910390fd5b5f4790505f6005819055505f3373ffffffffffffffffffffffffffffffffffffffff16826040516116e490612136565b5f6040518083038185875af1925050503d805f811461171e576040519150601f19603f3d011682016040523d82523d5f602084013e611723565b606091505b5050905080611767576040517f08c379a000000000000000000000000000000000000000000000000000000000815260040161175e90612194565b60405180910390fd5b3373ffffffffffffffffffffffffffffffffffffffff167feaff4b37086828766ad3268786972c0cd24259d4c87a80f9d3963a3c3d999b0d836040516117ad9190611be3565b60405180910390a25050565b60015f9054906101000a900473ffffffffffffffffffffffffffffffffffffffff1673ffffffffffffffffffffffffffffffffffffffff163373ffffffffffffffffffffffffffffffffffffffff1614611848576040517f08c379a000000000000000000000000000000000000000000000000000000000815260040161183f90612050565b60405180910390fd5b3460055f8282546118599190611ba1565b925050819055503373ffffffffffffffffffffffffffffffffffffffff167f543ba50a5eec5e6178218e364b1d0f396157b3c8fa278522c2cb7fd99407d474346040516118a69190611be3565b60405180910390a2565b60015f9054906101000a900473ffffffffffffffffffffffffffffffffffffffff1673ffffffffffffffffffffffffffffffffffffffff163373ffffffffffffffffffffffffffffffffffffffff161461193f576040517f08c379a000000000000000000000000000000000000000000000000000000000815260040161193690612050565b60405180910390fd5b5f73ffffffffffffffffffffffffffffffffffffffff168173ffffffffffffffffffffffffffffffffffffffff16036119ad576040517f08c379a00000000000000000000000000000000000000000000000000000000081526004016119a4906126b5565b60405180910390fd5b8073ffffffffffffffffffffffffffffffffffffffff1660015f9054906101000a900473ffffffffffffffffffffffffffffffffffffffff1673ffffffffffffffffffffffffffffffffffffffff167f8be0079c531659141344cd1fd0a4f28419497f9722a3daafe3b4186f6b6457e060405160405180910390a38060015f6101000a81548173ffffffffffffffffffffffffffffffffffffffff021916908373ffffffffffffffffffffffffffffffffffffffff16021790555050565b5f5f9054906101000a900473ffffffffffffffffffffffffffffffffffffffff1681565b6006602052805f5260405f205f91509050805f015f9054906101000a900473ffffffffffffffffffffffffffffffffffffffff1690806001015490806002015f9054906101000a900460ff16908060020160019054906101000a900460ff16905084565b5f82825260208201905092915050565b7f4f6e6c79206f776e65722063616e2073656e6420455448206469726563746c795f82015250565b5f611b37602083611af3565b9150611b4282611b03565b602082019050919050565b5f6020820190508181035f830152611b6481611b2b565b9050919050565b5f819050919050565b7f4e487b71000000000000000000000000000000000000000000000000000000005f52601160045260245ffd5b5f611bab82611b6b565b9150611bb683611b6b565b9250828201905080821115611bce57611bcd611b74565b5b92915050565b611bdd81611b6b565b82525050565b5f602082019050611bf65f830184611bd4565b92915050565b5f5ffd5b611c0981611b6b565b8114611c13575f5ffd5b50565b5f81359050611c2481611c00565b92915050565b5f60208284031215611c3f57611c3e611bfc565b5b5f611c4c84828501611c16565b91505092915050565b5f60c082019050611c685f830189611bd4565b611c756020830188611bd4565b611c826040830187611bd4565b611c8f6060830186611bd4565b611c9c6080830185611bd4565b611ca960a0830184611bd4565b979650505050505050565b5f73ffffffffffffffffffffffffffffffffffffffff82169050919050565b5f611cdd82611cb4565b9050919050565b611ced81611cd3565b82525050565b5f602082019050611d065f830184611ce4565b92915050565b5f8115159050919050565b611d2081611d0c565b82525050565b5f81519050919050565b8281835e5f83830152505050565b5f601f19601f8301169050919050565b5f611d5882611d26565b611d628185611af3565b9350611d72818560208601611d30565b611d7b81611d3e565b840191505092915050565b5f604082019050611d995f830185611d17565b8181036020830152611dab8184611d4e565b90509392505050565b5f604082019050611dc75f830185611bd4565b611dd46020830184611bd4565b9392505050565b60028110611de7575f5ffd5b50565b5f81359050611df881611ddb565b92915050565b5f60208284031215611e1357611e12611bfc565b5b5f611e2084828501611dea565b91505092915050565b5f5f60408385031215611e3f57611e3e611bfc565b5b5f611e4c85828601611c16565b9250506020611e5d85828601611c16565b9150509250929050565b5f6020820190508181035f830152611e7f8184611d4e565b905092915050565b611e9081611cd3565b8114611e9a575f5ffd5b50565b5f81359050611eab81611e87565b92915050565b5f60208284031215611ec657611ec5611bfc565b5b5f611ed384828501611e9d565b91505092915050565b5f819050919050565b5f611eff611efa611ef584611cb4565b611edc565b611cb4565b9050919050565b5f611f1082611ee5565b9050919050565b5f611f2182611f06565b9050919050565b611f3181611f17565b82525050565b5f602082019050611f4a5f830184611f28565b92915050565b7f4e487b71000000000000000000000000000000000000000000000000000000005f52602160045260245ffd5b60028110611f8e57611f8d611f50565b5b50565b5f819050611f9e82611f7d565b919050565b5f611fad82611f91565b9050919050565b611fbd81611fa3565b82525050565b5f608082019050611fd65f830187611ce4565b611fe36020830186611bd4565b611ff06040830185611fb4565b611ffd6060830184611d17565b95945050505050565b7f4e6f74206f776e657200000000000000000000000000000000000000000000005f82015250565b5f61203a600983611af3565b915061204582612006565b602082019050919050565b5f6020820190508181035f8301526120678161202e565b9050919050565b7f496e73756666696369656e7420636f6e74726163742062616c616e63650000005f82015250565b5f6120a2601d83611af3565b91506120ad8261206e565b602082019050919050565b5f6020820190508181035f8301526120cf81612096565b9050919050565b5f6120e082611b6b565b91506120eb83611b6b565b925082820390508181111561210357612102611b74565b5b92915050565b5f81905092915050565b50565b5f6121215f83612109565b915061212c82612113565b5f82019050919050565b5f61214082612116565b9150819050919050565b7f455448207472616e73666572206661696c6564000000000000000000000000005f82015250565b5f61217e601383611af3565b91506121898261214a565b602082019050919050565b5f6020820190508181035f8301526121ab81612172565b9050919050565b5f6121bc82611b6b565b91506121c783611b6b565b92508282026121d581611b6b565b915082820484148315176121ec576121eb611b74565b5b5092915050565b7f4e487b71000000000000000000000000000000000000000000000000000000005f52601260045260245ffd5b5f61222a82611b6b565b915061223583611b6b565b925082612245576122446121f3565b5b828204905092915050565b7f42657420616d6f756e742062656c6f77206d696e696d756d00000000000000005f82015250565b5f612284601883611af3565b915061228f82612250565b602082019050919050565b5f6020820190508181035f8301526122b181612278565b9050919050565b7f4265742065786365656473206d617820726577617264206c696d6974000000005f82015250565b5f6122ec601c83611af3565b91506122f7826122b8565b602082019050919050565b5f6020820190508181035f830152612319816122e0565b9050919050565b5f819050919050565b5f61234361233e61233984612320565b611edc565b611b6b565b9050919050565b61235381612329565b82525050565b5f60208201905061236c5f83018461234a565b92915050565b5f8151905061238081611c00565b92915050565b5f6020828403121561239b5761239a611bfc565b5b5f6123a884828501612372565b91505092915050565b5f6040820190506123c45f830185611bd4565b6123d16020830184611fb4565b9392505050565b7f4e6f74205652462070726f7669646572000000000000000000000000000000005f82015250565b5f61240c601083611af3565b9150612417826123d8565b602082019050919050565b5f6020820190508181035f83015261243981612400565b9050919050565b7f466c697020616c72656164792070726f636573736564000000000000000000005f82015250565b5f612474601683611af3565b915061247f82612440565b602082019050919050565b5f6020820190508181035f8301526124a181612468565b9050919050565b5f819050919050565b6124c26124bd82611b6b565b6124a8565b82525050565b5f6124d382856124b1565b6020820191506124e382846124b1565b6020820191508190509392505050565b5f6124fd82611b6b565b915061250883611b6b565b925082612518576125176121f3565b5b828206905092915050565b5f60a0820190506125365f830188611bd4565b6125436020830187611fb4565b6125506040830186611fb4565b61255d6060830185611d17565b61256a6080830184611bd4565b9695505050505050565b7f496e76616c6964207265776172642070657263656e74000000000000000000005f82015250565b5f6125a8601683611af3565b91506125b382612574565b602082019050919050565b5f6020820190508181035f8301526125d58161259c565b9050919050565b7f496e76616c6964206e6577205652462070726f766964657200000000000000005f82015250565b5f612610601883611af3565b915061261b826125dc565b602082019050919050565b5f6020820190508181035f83015261263d81612604565b9050919050565b5f6040820190506126575f830185611ce4565b6126646020830184611ce4565b9392505050565b7f496e76616c6964206e6577206f776e65720000000000000000000000000000005f82015250565b5f61269f601183611af3565b91506126aa8261266b565b602082019050919050565b5f6020820190508181035f8301526126cc81612693565b905091905056fea26469706673582212200f7121a4e892247b8b971ccabe86fef196df255329ec0aeda4f07d270851e04164736f6c634300081c0033",
  "linkReferences": {},
  "deployedLinkReferences": {},
  "immutableReferences": {},
  "inputSourceName": "project/contracts/CoinFlip.sol",
  "buildInfoId": "solc-0_8_28-c95d38af71234789fe0dfc3bdde56b833d98296b"
}