{
  "_format": "hh3-artifact-1",
  "contractName": "MockVRF",
  "sourceName": "contracts/MockVRF.sol",
  "abi": [
    {
      "anonymous": false,
      "inputs": [
        {
          "indexed": false,
          "internalType": "address",
          "name": "target",
          "type": "address"
        },
        {
          "indexed": false,
          "internalType": "uint256",
          "name": "requestId",
          "type": "uint256"
        },
        {
          "indexed": false,
          "internalType": "uint256",
          "name": "randomNumber",
          "type": "uint256"
        }
      ],
      "name": "CallbackTriggered",
      "type": "event"
    },
    {
      "anonymous": false,
      "inputs": [
        {
          "indexed": false,
          "internalType": "uint256",
          "name": "requestId",
          "type": "uint256"
        },
        {
          "indexed": false,
          "internalType": "uint256",
          "name": "traceId",
          "type": "uint256"
        }
      ],
      "name": "RandomNumberRequested",
      "type": "event"
    },
    {
      "inputs": [],
      "name": "getNextRequestId",
      "outputs": [
        {
          "internalType": "uint256",
          "name": "",
          "type": "uint256"
        }
      ],
      "stateMutability": "view",
      "type": "function"
    },
    {
      "inputs": [
        {
          "internalType": "uint256",
          "name": "",
          "type": "uint256"
        }
      ],
      "name": "requestExists",
      "outputs": [
        {
          "internalType": "bool",
          "name": "",
          "type": "bool"
        }
      ],
      "stateMutability": "view",
      "type": "function"
    },
    {
      "inputs": [
        {
          "internalType": "uint256",
          "name": "traceId",
          "type": "uint256"
        }
      ],
      "name": "requestRandomNumberWithTraceId",
      "outputs": [
        {
          "internalType": "uint256",
          "name": "",
          "type": "uint256"
        }
      ],
      "stateMutability": "nonpayable",
      "type": "function"
    },
    {
      "inputs": [
        {
          "internalType": "address",
          "name": "target",
          "type": "address"
        },
        {
          "internalType": "uint256",
          "name": "requestId",
          "type": "uint256"
        },
        {
          "internalType": "uint256",
          "name": "randomNumber",
          "type": "uint256"
        }
      ],
      "name": "triggerCallback",
      "outputs": [],
      "stateMutability": "nonpayable",
      "type": "function"
    }
  ],
  "bytecode": "0x608060405260015f553480156012575f5ffd5b50610589806100205f395ff3fe608060405234801561000f575f5ffd5b506004361061004a575f3560e01c80633bc571d91461004e578063c53772af1461006c578063e391447214610088578063ea277eca146100b8575b5f5ffd5b6100566100e8565b60405161006391906102ad565b60405180910390f35b6100866004803603810190610081919061034e565b6100f0565b005b6100a2600480360381019061009d919061039e565b6101f5565b6040516100af91906102ad565b60405180910390f35b6100d260048036038101906100cd919061039e565b610278565b6040516100df91906103e3565b60405180910390f35b5f5f54905090565b60015f8381526020019081526020015f205f9054906101000a900460ff1661014d576040517f08c379a000000000000000000000000000000000000000000000000000000000815260040161014490610456565b60405180910390fd5b7f8614bbf40de7d34e5aeb396f12e53e1f4c25e0afc01ea2cbf913bfed07f3dfc783838360405161018093929190610483565b60405180910390a18273ffffffffffffffffffffffffffffffffffffffff16638f561acc83836040518363ffffffff1660e01b81526004016101c39291906104b8565b5f604051808303815f87803b1580156101da575f5ffd5b505af11580156101ec573d5f5f3e3d5ffd5b50505050505050565b5f5f5f5f8154809291906102089061050c565b9190505590506001805f8381526020019081526020015f205f6101000a81548160ff0219169083151502179055507f05a7714ffa9c24d72553c49c132db52354eb21df8a76cefa9def229b276feeb481846040516102679291906104b8565b60405180910390a180915050919050565b6001602052805f5260405f205f915054906101000a900460ff1681565b5f819050919050565b6102a781610295565b82525050565b5f6020820190506102c05f83018461029e565b92915050565b5f5ffd5b5f73ffffffffffffffffffffffffffffffffffffffff82169050919050565b5f6102f3826102ca565b9050919050565b610303816102e9565b811461030d575f5ffd5b50565b5f8135905061031e816102fa565b92915050565b61032d81610295565b8114610337575f5ffd5b50565b5f8135905061034881610324565b92915050565b5f5f5f60608486031215610365576103646102c6565b5b5f61037286828701610310565b93505060206103838682870161033a565b92505060406103948682870161033a565b9150509250925092565b5f602082840312156103b3576103b26102c6565b5b5f6103c08482850161033a565b91505092915050565b5f8115159050919050565b6103dd816103c9565b82525050565b5f6020820190506103f65f8301846103d4565b92915050565b5f82825260208201905092915050565b7f5265717565737420646f6573206e6f74206578697374000000000000000000005f82015250565b5f6104406016836103fc565b915061044b8261040c565b602082019050919050565b5f6020820190508181035f83015261046d81610434565b9050919050565b61047d816102e9565b82525050565b5f6060820190506104965f830186610474565b6104a3602083018561029e565b6104b0604083018461029e565b949350505050565b5f6040820190506104cb5f83018561029e565b6104d8602083018461029e565b9392505050565b7f4e487b71000000000000000000000000000000000000000000000000000000005f52601160045260245ffd5b5f61051682610295565b91507fffffffffffffffffffffffffffffffffffffffffffffffffffffffffffffffff8203610548576105476104df565b5b60018201905091905056fea26469706673582212209e108959ebb106dc7fd80287421891a1609bbf580664fd08109e6fd6b728139464736f6c634300081c0033",
  "linkReferences": {},
  "deployedLinkReferences": {},
  "immutableReferences": {},
  "inputSourceName": "project/contracts/MockVRF.sol",
  "buildInfoId": "solc-0_8_28-c95d38af71234789fe0dfc3bdde56b833d98296b"
}